{"abi":[{"type":"constructor","inputs":[{"name":"admin","type":"address","internalType":"address"}],"stateMutability":"nonpayable"},{"type":"function","name":"DEFAULT_ADMIN_ROLE","inputs":[],"outputs":[{"name":"","type":"bytes32","internalType":"bytes32"}],"stateMutability":"view"},{"type":"function","name":"REGISTRAR_ROLE","inputs":[],"outputs":[{"name":"","type":"bytes32","internalType":"bytes32"}],"stateMutability":"view"},{"type":"function","name":"approveTransfer","inputs":[{"name":"parcelId","type":"uint256","internalType":"uint256"}],"outputs":[],"stateMutability":"nonpayable"},{"type":"function","name":"clearPendingTransfer","inputs":[{"name":"parcelId","type":"uint256","internalType":"uint256"}],"outputs":[],"stateMutability":"nonpayable"},{"type":"function","name":"freezeParcel","inputs":[{"name":"parcelId","type":"uint256","internalType":"uint256"}],"outputs":[],"stateMutability":"nonpayable"},{"type":"function","name":"getParcel","inputs":[{"name":"parcelId","type":"uint256","internalType":"uint256"}],"outputs":[{"name":"","type":"tuple","internalType":"struct LandRegistry.Parcel","components":[{"name":"owner","type":"address","internalType":"address"},{"name":"areaSqMeters","type":"uint256","internalType":"uint256"},{"name":"polygonHash","type":"string","internalType":"string"},{"name":"metadataCID","type":"string","internalType":"string"},{"name":"pendingOwner","type":"address","internalType":"address"},{"name":"frozen","type":"bool","internalType":"bool"},{"name":"exists","type":"bool","internalType":"bool"}]}],"stateMutability":"view"},{"type":"function","name":"getRoleAdmin","inputs":[{"name":"role","type":"bytes32","internalType":"bytes32"}],"outputs":[{"name":"","type":"bytes32","internalType":"bytes32"}],"stateMutability":"view"},{"type":"function","name":"grantRole","inputs":[{"name":"role","type":"bytes32","internalType":"bytes32"},{"name":"account","type":"address","internalType":"address"}],"outputs":[],"stateMutability":"nonpayable"},{"type":"function","name":"hasRole","inputs":[{"name":"role","type":"bytes32","internalType":"bytes32"},{"name":"account","type":"address","internalType":"address"}],"outputs":[{"name":"","type":"bool","internalType":"bool"}],"stateMutability":"view"},{"type":"function","name":"registerParcel","inputs":[{"name":"parcelId","type":"uint256","internalType":"uint256"},{"name":"owner","type":"address","internalType":"address"},{"name":"areaSqMeters","type":"uint256","internalType":"uint256"},{"name":"polygonHash","type":"string","internalType":"string"},{"name":"metadataCID","type":"string","internalType":"string"}],"outputs":[],"stateMutability":"nonpayable"},{"type":"function","name":"renounceRole","inputs":[{"name":"role","type":"bytes32","internalType":"bytes32"},{"name":"callerConfirmation","type":"address","internalType":"address"}],"outputs":[],"stateMutability":"nonpayable"},{"type":"function","name":"requestTransfer","inputs":[{"name":"parcelId","type":"uint256","internalType":"uint256"},{"name":"to","type":"address","internalType":"address"}],"outputs":[],"stateMutability":"nonpayable"},{"type":"function","name":"revokeRole","inputs":[{"name":"role","type":"bytes32","internalType":"bytes32"},{"name":"account","type":"address","internalType":"address"}],"outputs":[],"stateMutability":"nonpayable"},{"type":"function","name":"supportsInterface","inputs":[{"name":"interfaceId","type":"bytes4","internalType":"bytes4"}],"outputs":[{"name":"","type":"bool","internalType":"bool"}],"stateMutability":"view"},{"type":"function","name":"unfreezeParcel","inputs":[{"name":"parcelId","type":"uint256","internalType":"uint256"}],"outputs":[],"stateMutability":"nonpayable"},{"type":"function","name":"verifyParcel","inputs":[{"name":"parcelId","type":"uint256","internalType":"uint256"}],"outputs":[{"name":"owner","type":"address","internalType":"address"},{"name":"areaSqMeters","type":"uint256","internalType":"uint256"},{"name":"polygonHash","type":"string","internalType":"string"},{"name":"metadataCID","type":"string","internalType":"string"},{"name":"pendingOwner","type":"address","internalType":"address"},{"name":"frozen","type":"bool","internalType":"bool"},{"name":"exists","type":"bool","internalType":"bool"}],"stateMutability":"view"},{"type":"event","name":"ParcelFrozen","inputs":[{"name":"parcelId","type":"uint256","indexed":true,"internalType":"uint256"},{"name":"registrar","type":"address","indexed":true,"internalType":"address"}],"anonymous":false},{"type":"event","name":"ParcelRegistered","inputs":[{"name":"parcelId","type":"uint256","indexed":true,"internalType":"uint256"},{"name":"owner","type":"address","indexed":true,"internalType":"address"},{"name":"areaSqMeters","type":"uint256","indexed":false,"internalType":"uint256"},{"name":"polygonHash","type":"string","indexed":false,"internalType":"string"},{"name":"metadataCID","type":"string","indexed":false,"internalType":"string"}],"anonymous":false},{"type":"event","name":"ParcelUnfrozen","inputs":[{"name":"parcelId","type":"uint256","indexed":true,"internalType":"uint256"},{"name":"registrar","type":"address","indexed":true,"internalType":"address"}],"anonymous":false},{"type":"event","name":"RoleAdminChanged","inputs":[{"name":"role","type":"bytes32","indexed":true,"internalType":"bytes32"},{"name":"previousAdminRole","type":"bytes32","indexed":true,"internalType":"bytes32"},{"name":"newAdminRole","type":"bytes32","indexed":true,"internalType":"bytes32"}],"anonymous":false},{"type":"event","name":"RoleGranted","inputs":[{"name":"role","type":"bytes32","indexed":true,"internalType":"bytes32"},{"name":"account","type":"address","indexed":true,"internalType":"address"},{"name":"sender","type":"address","indexed":true,"internalType":"address"}],"anonymous":false},{"type":"event","name":"RoleRevoked","inputs":[{"name":"role","type":"bytes32","indexed":true,"internalType":"bytes32"},{"name":"account","type":"address","indexed":true,"internalType":"address"},{"name":"sender","type":"address","indexed":true,"internalType":"address"}],"anonymous":false},{"type":"event","name":"TransferApproved","inputs":[{"name":"parcelId","type":"uint256","indexed":true,"internalType":"uint256"},{"name":"from","type":"address","indexed":true,"internalType":"address"},{"name":"to","type":"address","indexed":true,"internalType":"address"}],"anonymous":false},{"type":"event","name":"TransferRequested","inputs":[{"name":"parcelId","type":"uint256","indexed":true,"internalType":"uint256"},{"name":"from","type":"address","indexed":true,"internalType":"address"},{"name":"to","type":"address","indexed":true,"internalType":"address"}],"anonymous":false},{"type":"error","name":"AccessControlBadConfirmation","inputs":[]},{"type":"error","name":"AccessControlUnauthorizedAccount","inputs":[{"name":"account","type":"address","internalType":"address"},{"name":"neededRole","type":"bytes32","internalType":"bytes32"}]},{"type":"error","name":"InvalidAddress","inputs":[]},{"type":"error","name":"InvalidArea","inputs":[]},{"type":"error","name":"InvalidString","inputs":[]},{"type":"error","name":"InvalidTransferRequest","inputs":[]},{"type":"error","name":"NoPendingTransfer","inputs":[{"name":"parcelId","type":"uint256","internalType":"uint256"}]},{"type":"error","name":"ParcelAlreadyExists","inputs":[{"name":"parcelId","type":"uint256","internalType":"uint256"}]},{"type":"error","name":"ParcelIsFrozen","inputs":[{"name":"parcelId","type":"uint256","internalType":"uint256"}]},{"type":"error","name":"ParcelNotFound","inputs":[{"name":"parcelId","type":"uint256","internalType":"uint256"}]},{"type":"error","name":"Unauthorized","inputs":[]}],"bytecode":{"object":"0x608060405234801562000010575f80fd5b506040516200157238038062001572833981016040819052620000339162000148565b6001600160a01b0381166200005b5760405163e6c4247b60e01b815260040160405180910390fd5b620000675f826200009c565b50620000947fedcc084d3dcd65a1f7f23c65c46722faca6953d28e43150a467cf43e5c309238826200009c565b505062000177565b5f828152602081815260408083206001600160a01b038516845290915281205460ff166200013f575f838152602081815260408083206001600160a01b03861684529091529020805460ff19166001179055620000f63390565b6001600160a01b0316826001600160a01b0316847f2f8788117e7eff1d82e926ec794901d17c78024a50270940304540a733656f0d60405160405180910390a450600162000142565b505f5b92915050565b5f6020828403121562000159575f80fd5b81516001600160a01b038116811462000170575f80fd5b9392505050565b6113ed80620001855f395ff3fe608060405234801561000f575f80fd5b50600436106100fb575f3560e01c806391d1485411610093578063d547741f11610063578063d547741f1461022b578063edc2e2f51461023e578063f68e955314610251578063fa9b715a14610265575f80fd5b806391d14854146101eb578063a217fddf146101fe578063b6869c1b14610205578063cacca4a014610218575f80fd5b806340344232116100ce578063403442321461017f5780634d0434f2146101925780635edfe28a146101b257806369bc5ed1146101c5575f80fd5b806301ffc9a7146100ff578063248a9ca3146101275780632f2ff15d1461015757806336568abe1461016c575b5f80fd5b61011261010d366004610f57565b610278565b60405190151581526020015b60405180910390f35b610149610135366004610f85565b5f9081526020819052604090206001015490565b60405190815260200161011e565b61016a610165366004610fb7565b6102ae565b005b61016a61017a366004610fb7565b6102d8565b61016a61018d366004610fb7565b610310565b6101a56101a0366004610f85565b610440565b60405161011e9190611024565b61016a6101c0366004610f85565b610644565b6101d86101d3366004610f85565b6106eb565b60405161011e97969594939291906110b2565b6101126101f9366004610fb7565b6108e8565b6101495f81565b61016a610213366004611153565b610910565b61016a610226366004610f85565b610b95565b61016a610239366004610fb7565b610caa565b61016a61024c366004610f85565b610cce565b6101495f8051602061139883398151915281565b61016a610273366004610f85565b610d69565b5f6001600160e01b03198216637965db0b60e01b14806102a857506301ffc9a760e01b6001600160e01b03198316145b92915050565b5f828152602081905260409020600101546102c881610e15565b6102d28383610e22565b50505050565b6001600160a01b03811633146103015760405163334bd91960e11b815260040160405180910390fd5b61030b8282610eb1565b505050565b5f8281526001602052604090206004810154600160a81b900460ff16610351576040516314f96af160e21b8152600481018490526024015b60405180910390fd5b6004810154600160a01b900460ff1615610381576040516328d8671360e11b815260048101849052602401610348565b80546001600160a01b031633146103aa576040516282b42960e81b815260040160405180910390fd5b6001600160a01b03821615806103cc575080546001600160a01b038381169116145b156103ea5760405163147cf14960e31b815260040160405180910390fd5b6004810180546001600160a01b0319166001600160a01b0384811691821790925582546040519192169085907fad86e5395107a44c23ae10207c8807efe6cd1bfc2980d8c2bcab8f3a24daccd1905f90a4505050565b6104916040518060e001604052805f6001600160a01b031681526020015f815260200160608152602001606081526020015f6001600160a01b031681526020015f151581526020015f151581525090565b5f828152600160208181526040808420815160e08101835281546001600160a01b031681529381015492840192909252600282018054918401916104d4906111e0565b80601f0160208091040260200160405190810160405280929190818152602001828054610500906111e0565b801561054b5780601f106105225761010080835404028352916020019161054b565b820191905f5260205f20905b81548152906001019060200180831161052e57829003601f168201915b50505050508152602001600382018054610564906111e0565b80601f0160208091040260200160405190810160405280929190818152602001828054610590906111e0565b80156105db5780601f106105b2576101008083540402835291602001916105db565b820191905f5260205f20905b8154815290600101906020018083116105be57829003601f168201915b5050509183525050600491909101546001600160a01b038116602083015260ff600160a01b8204811615156040840152600160a81b90910416151560609091015260c08101519091506102a8576040516314f96af160e21b815260048101849052602401610348565b5f8051602061139883398151915261065b81610e15565b5f8281526001602052604090206004810154600160a81b900460ff16610697576040516314f96af160e21b815260048101849052602401610348565b6004810154600160a01b900460ff161561030b5760048101805460ff60a01b19169055604051339084907f1c6d74693630f709f90b817c0ff13a2c252c9f1d2dda59e24276ea8c6d0ac8f3905f90a3505050565b5f818152600160208181526040808420815160e08101835281546001600160a01b0316815293810154928401929092526002820180548594606094859487948594859485949093909290840191610741906111e0565b80601f016020809104026020016040519081016040528092919081815260200182805461076d906111e0565b80156107b85780601f1061078f576101008083540402835291602001916107b8565b820191905f5260205f20905b81548152906001019060200180831161079b57829003601f168201915b505050505081526020016003820180546107d1906111e0565b80601f01602080910402602001604051908101604052809291908181526020018280546107fd906111e0565b80156108485780601f1061081f57610100808354040283529160200191610848565b820191905f5260205f20905b81548152906001019060200180831161082b57829003601f168201915b5050509183525050600491909101546001600160a01b038116602083015260ff600160a01b8204811615156040840152600160a81b90910416151560609091015260c08101519091506108b1576040516314f96af160e21b8152600481018a9052602401610348565b8051602082015160408301516060840151608085015160a086015160c090960151949e939d50919b50995097509195509350915050565b5f918252602082815260408084206001600160a01b0393909316845291905290205460ff1690565b5f8051602061139883398151915261092781610e15565b5f88815260016020526040902060040154600160a81b900460ff1615610963576040516364ec35ad60e01b815260048101899052602401610348565b6001600160a01b03871661098a5760405163e6c4247b60e01b815260040160405180910390fd5b855f036109aa57604051633aed941960e21b815260040160405180910390fd5b5f8490036109cb57604051630ec0325960e21b815260040160405180910390fd5b5f8290036109ec57604051630ec0325960e21b815260040160405180910390fd5b6040518060e00160405280886001600160a01b0316815260200187815260200186868080601f0160208091040260200160405190810160405280939291908181526020018383808284375f92019190915250505090825250604080516020601f8701819004810282018101909252858152918101919086908690819084018382808284375f92018290525093855250505060208083018290526040808401839052600160609094018490528c835283825291829020845181546001600160a01b0319166001600160a01b0390911617815590840151928101929092558201516002820190610ada9082611277565b5060608201516003820190610aef9082611277565b5060808201516004909101805460a084015160c0909401511515600160a81b0260ff60a81b19941515600160a01b026001600160a81b03199092166001600160a01b03948516179190911793909316929092179091556040519088169089907fc07524e44a2b560d374cc4b116a1ea7157d3e93aa66cb80e639539874486c79d90610b83908a908a908a908a908a9061135f565b60405180910390a35050505050505050565b5f80516020611398833981519152610bac81610e15565b5f8281526001602052604090206004810154600160a81b900460ff16610be8576040516314f96af160e21b815260048101849052602401610348565b6004810154600160a01b900460ff1615610c18576040516328d8671360e11b815260048101849052602401610348565b60048101546001600160a01b0316610c4657604051633cb794ef60e11b815260048101849052602401610348565b80546004820180546001600160a01b038082166001600160a01b0319808616821787559092169092556040519190921691908190839087907f46f832fce5ed185c63ebb7f10c809c6ecbe7c0e49554433903d83d6dceef88f7905f90a45050505050565b5f82815260208190526040902060010154610cc481610e15565b6102d28383610eb1565b5f8181526001602052604090206004810154600160a81b900460ff16610d0a576040516314f96af160e21b815260048101839052602401610348565b80546001600160a01b03163314801590610d385750610d365f80516020611398833981519152336108e8565b155b15610d55576040516282b42960e81b815260040160405180910390fd5b60040180546001600160a01b031916905550565b5f80516020611398833981519152610d8081610e15565b5f8281526001602052604090206004810154600160a81b900460ff16610dbc576040516314f96af160e21b815260048101849052602401610348565b6004810154600160a01b900460ff1661030b5760048101805460ff60a01b1916600160a01b179055604051339084907fd059dbac75aec24ee618a21d2d08bde2967b5adda38c74ea8bd746f49fe02e36905f90a3505050565b610e1f8133610f1a565b50565b5f610e2d83836108e8565b610eaa575f838152602081815260408083206001600160a01b03861684529091529020805460ff19166001179055610e623390565b6001600160a01b0316826001600160a01b0316847f2f8788117e7eff1d82e926ec794901d17c78024a50270940304540a733656f0d60405160405180910390a45060016102a8565b505f6102a8565b5f610ebc83836108e8565b15610eaa575f838152602081815260408083206001600160a01b0386168085529252808320805460ff1916905551339286917ff6391f5c32d9c69d2a47ea670b442974b53935d1edc7fd64eb21e047a839171b9190a45060016102a8565b610f2482826108e8565b610f535760405163e2517d3f60e01b81526001600160a01b038216600482015260248101839052604401610348565b5050565b5f60208284031215610f67575f80fd5b81356001600160e01b031981168114610f7e575f80fd5b9392505050565b5f60208284031215610f95575f80fd5b5035919050565b80356001600160a01b0381168114610fb2575f80fd5b919050565b5f8060408385031215610fc8575f80fd5b82359150610fd860208401610f9c565b90509250929050565b5f81518084525f5b8181101561100557602081850181015186830182015201610fe9565b505f602082860101526020601f19601f83011685010191505092915050565b602081525f60018060a01b0380845116602084015260208401516040840152604084015160e0606085015261105d610100850182610fe1565b90506060850151601f1985830301608086015261107a8282610fe1565b9150508160808601511660a085015260a0850151151560c085015260c085015191506110aa60e085018315159052565b949350505050565b5f60018060a01b03808a16835288602084015260e060408401526110d960e0840189610fe1565b83810360608501526110eb8189610fe1565b969091166080840152505091151560a0830152151560c090910152949350505050565b5f8083601f84011261111e575f80fd5b50813567ffffffffffffffff811115611135575f80fd5b60208301915083602082850101111561114c575f80fd5b9250929050565b5f805f805f805f60a0888a031215611169575f80fd5b8735965061117960208901610f9c565b955060408801359450606088013567ffffffffffffffff8082111561119c575f80fd5b6111a88b838c0161110e565b909650945060808a01359150808211156111c0575f80fd5b506111cd8a828b0161110e565b989b979a50959850939692959293505050565b600181811c908216806111f457607f821691505b60208210810361121257634e487b7160e01b5f52602260045260245ffd5b50919050565b634e487b7160e01b5f52604160045260245ffd5b601f82111561030b57805f5260205f20601f840160051c810160208510156112515750805b601f840160051c820191505b81811015611270575f815560010161125d565b5050505050565b815167ffffffffffffffff81111561129157611291611218565b6112a58161129f84546111e0565b8461122c565b602080601f8311600181146112d8575f84156112c15750858301515b5f19600386901b1c1916600185901b17855561132f565b5f85815260208120601f198616915b82811015611306578886015182559484019460019091019084016112e7565b508582101561132357878501515f19600388901b60f8161c191681555b505060018460011b0185555b505050505050565b81835281816020850137505f828201602090810191909152601f909101601f19169091010190565b858152606060208201525f611378606083018688611337565b828103604084015261138b818587611337565b9897505050505050505056feedcc084d3dcd65a1f7f23c65c46722faca6953d28e43150a467cf43e5c309238a2646970667358221220f752788e5c9ba63baf103aaaf6622e790bf7708ad03eca4efb26ccf91e7c24e064736f6c63430008180033","linkReferences":{}},"methodIdentifiers":{"DEFAULT_ADMIN_ROLE()":"a217fddf","REGISTRAR_ROLE()":"f68e9553","approveTransfer(uint256)":"cacca4a0","clearPendingTransfer(uint256)":"edc2e2f5","freezeParcel(uint256)":"fa9b715a","getParcel(uint256)":"4d0434f2","getRoleAdmin(bytes32)":"248a9ca3","grantRole(bytes32,address)":"2f2ff15d","hasRole(bytes32,address)":"91d14854","registerParcel(uint256,address,uint256,string,string)":"b6869c1b","renounceRole(bytes32,address)":"36568abe","requestTransfer(uint256,address)":"40344232","revokeRole(bytes32,address)":"d547741f","supportsInterface(bytes4)":"01ffc9a7","unfreezeParcel(uint256)":"5edfe28a","verifyParcel(uint256)":"69bc5ed1"},"id":24}