{"abi":[{"type":"constructor","inputs":[{"name":"admin","type":"address","internalType":"address"}],"stateMutability":"nonpayable"},{"type":"function","name":"DEFAULT_ADMIN_ROLE","inputs":[],"outputs":[{"name":"","type":"bytes32","internalType":"bytes32"}],"stateMutability":"view"},{"type":"function","name":"REGISTRAR_ROLE","inputs":[],"outputs":[{"name":"","type":"bytes32","internalType":"bytes32"}],"stateMutability":"view"},{"type":"function","name":"approveTransfer","inputs":[{"name":"parcelId","type":"uint256","internalType":"uint256"}],"outputs":[],"stateMutability":"nonpayable"},{"type":"function","name":"clearPendingTransfer","inputs":[{"name":"parcelId","type":"uint256","internalType":"uint256"}],"outputs":[],"stateMutability":"nonpayable"},{"type":"function","name":"freezeParcel","inputs":[{"name":"parcelId","type":"uint256","internalType":"uint256"}],"outputs":[],"stateMutability":"nonpayable"},{"type":"function","name":"getAllParcelIds","inputs":[],"outputs":[{"name":"","type":"uint256[]","internalType":"uint256[]"}],"stateMutability":"view"},{"type":"function","name":"getPaginatedParcelIds","inputs":[{"name":"offset","type":"uint256","internalType":"uint256"},{"name":"limit","type":"uint256","internalType":"uint256"}],"outputs":[{"name":"","type":"uint256[]","internalType":"uint256[]"}],"stateMutability":"view"},{"type":"function","name":"getParcel","inputs":[{"name":"parcelId","type":"uint256","internalType":"uint256"}],"outputs":[{"name":"","type":"tuple","internalType":"struct LandRegistry.Parcel","components":[{"name":"owner","type":"address","internalType":"address"},{"name":"areaSqMeters","type":"uint256","internalType":"uint256"},{"name":"polygonHash","type":"string","internalType":"string"},{"name":"metadataCID","type":"string","internalType":"string"},{"name":"pendingOwner","type":"address","internalType":"address"},{"name":"frozen","type":"bool","internalType":"bool"},{"name":"exists","type":"bool","internalType":"bool"}]}],"stateMutability":"view"},{"type":"function","name":"getParcelCount","inputs":[],"outputs":[{"name":"","type":"uint256","internalType":"uint256"}],"stateMutability":"view"},{"type":"function","name":"getRoleAdmin","inputs":[{"name":"role","type":"bytes32","internalType":"bytes32"}],"outputs":[{"name":"","type":"bytes32","internalType":"bytes32"}],"stateMutability":"view"},{"type":"function","name":"grantRole","inputs":[{"name":"role","type":"bytes32","internalType":"bytes32"},{"name":"account","type":"address","internalType":"address"}],"outputs":[],"stateMutability":"nonpayable"},{"type":"function","name":"hasRole","inputs":[{"name":"role","type":"bytes32","internalType":"bytes32"},{"name":"account","type":"address","internalType":"address"}],"outputs":[{"name":"","type":"bool","internalType":"bool"}],"stateMutability":"view"},{"type":"function","name":"registerParcel","inputs":[{"name":"parcelId","type":"uint256","internalType":"uint256"},{"name":"owner","type":"address","internalType":"address"},{"name":"areaSqMeters","type":"uint256","internalType":"uint256"},{"name":"polygonHash","type":"string","internalType":"string"},{"name":"metadataCID","type":"string","internalType":"string"}],"outputs":[],"stateMutability":"nonpayable"},{"type":"function","name":"renounceRole","inputs":[{"name":"role","type":"bytes32","internalType":"bytes32"},{"name":"callerConfirmation","type":"address","internalType":"address"}],"outputs":[],"stateMutability":"nonpayable"},{"type":"function","name":"requestTransfer","inputs":[{"name":"parcelId","type":"uint256","internalType":"uint256"},{"name":"to","type":"address","internalType":"address"}],"outputs":[],"stateMutability":"nonpayable"},{"type":"function","name":"revokeRole","inputs":[{"name":"role","type":"bytes32","internalType":"bytes32"},{"name":"account","type":"address","internalType":"address"}],"outputs":[],"stateMutability":"nonpayable"},{"type":"function","name":"supportsInterface","inputs":[{"name":"interfaceId","type":"bytes4","internalType":"bytes4"}],"outputs":[{"name":"","type":"bool","internalType":"bool"}],"stateMutability":"view"},{"type":"function","name":"unfreezeParcel","inputs":[{"name":"parcelId","type":"uint256","internalType":"uint256"}],"outputs":[],"stateMutability":"nonpayable"},{"type":"function","name":"verifyParcel","inputs":[{"name":"parcelId","type":"uint256","internalType":"uint256"}],"outputs":[{"name":"owner","type":"address","internalType":"address"},{"name":"areaSqMeters","type":"uint256","internalType":"uint256"},{"name":"polygonHash","type":"string","internalType":"string"},{"name":"metadataCID","type":"string","internalType":"string"},{"name":"pendingOwner","type":"address","internalType":"address"},{"name":"frozen","type":"bool","internalType":"bool"},{"name":"exists","type":"bool","internalType":"bool"}],"stateMutability":"view"},{"type":"event","name":"ParcelFrozen","inputs":[{"name":"parcelId","type":"uint256","indexed":true,"internalType":"uint256"},{"name":"registrar","type":"address","indexed":true,"internalType":"address"}],"anonymous":false},{"type":"event","name":"ParcelRegistered","inputs":[{"name":"parcelId","type":"uint256","indexed":true,"internalType":"uint256"},{"name":"owner","type":"address","indexed":true,"internalType":"address"},{"name":"areaSqMeters","type":"uint256","indexed":false,"internalType":"uint256"},{"name":"polygonHash","type":"string","indexed":false,"internalType":"string"},{"name":"metadataCID","type":"string","indexed":false,"internalType":"string"}],"anonymous":false},{"type":"event","name":"ParcelUnfrozen","inputs":[{"name":"parcelId","type":"uint256","indexed":true,"internalType":"uint256"},{"name":"registrar","type":"address","indexed":true,"internalType":"address"}],"anonymous":false},{"type":"event","name":"RoleAdminChanged","inputs":[{"name":"role","type":"bytes32","indexed":true,"internalType":"bytes32"},{"name":"previousAdminRole","type":"bytes32","indexed":true,"internalType":"bytes32"},{"name":"newAdminRole","type":"bytes32","indexed":true,"internalType":"bytes32"}],"anonymous":false},{"type":"event","name":"RoleGranted","inputs":[{"name":"role","type":"bytes32","indexed":true,"internalType":"bytes32"},{"name":"account","type":"address","indexed":true,"internalType":"address"},{"name":"sender","type":"address","indexed":true,"internalType":"address"}],"anonymous":false},{"type":"event","name":"RoleRevoked","inputs":[{"name":"role","type":"bytes32","indexed":true,"internalType":"bytes32"},{"name":"account","type":"address","indexed":true,"internalType":"address"},{"name":"sender","type":"address","indexed":true,"internalType":"address"}],"anonymous":false},{"type":"event","name":"TransferApproved","inputs":[{"name":"parcelId","type":"uint256","indexed":true,"internalType":"uint256"},{"name":"from","type":"address","indexed":true,"internalType":"address"},{"name":"to","type":"address","indexed":true,"internalType":"address"}],"anonymous":false},{"type":"event","name":"TransferRequested","inputs":[{"name":"parcelId","type":"uint256","indexed":true,"internalType":"uint256"},{"name":"from","type":"address","indexed":true,"internalType":"address"},{"name":"to","type":"address","indexed":true,"internalType":"address"}],"anonymous":false},{"type":"error","name":"AccessControlBadConfirmation","inputs":[]},{"type":"error","name":"AccessControlUnauthorizedAccount","inputs":[{"name":"account","type":"address","internalType":"address"},{"name":"neededRole","type":"bytes32","internalType":"bytes32"}]},{"type":"error","name":"InvalidAddress","inputs":[]},{"type":"error","name":"InvalidArea","inputs":[]},{"type":"error","name":"InvalidString","inputs":[]},{"type":"error","name":"InvalidTransferRequest","inputs":[]},{"type":"error","name":"NoPendingTransfer","inputs":[{"name":"parcelId","type":"uint256","internalType":"uint256"}]},{"type":"error","name":"ParcelAlreadyExists","inputs":[{"name":"parcelId","type":"uint256","internalType":"uint256"}]},{"type":"error","name":"ParcelIsFrozen","inputs":[{"name":"parcelId","type":"uint256","internalType":"uint256"}]},{"type":"error","name":"ParcelNotFound","inputs":[{"name":"parcelId","type":"uint256","internalType":"uint256"}]},{"type":"error","name":"Unauthorized","inputs":[]}],"bytecode":{"object":"0x608060405234801562000010575f80fd5b50604051620017f4380380620017f4833981016040819052620000339162000148565b6001600160a01b0381166200005b5760405163e6c4247b60e01b815260040160405180910390fd5b620000675f826200009c565b50620000947fedcc084d3dcd65a1f7f23c65c46722faca6953d28e43150a467cf43e5c309238826200009c565b505062000177565b5f828152602081815260408083206001600160a01b038516845290915281205460ff166200013f575f838152602081815260408083206001600160a01b03861684529091529020805460ff19166001179055620000f63390565b6001600160a01b0316826001600160a01b0316847f2f8788117e7eff1d82e926ec794901d17c78024a50270940304540a733656f0d60405160405180910390a450600162000142565b505f5b92915050565b5f6020828403121562000159575f80fd5b81516001600160a01b038116811462000170575f80fd5b9392505050565b61166f80620001855f395ff3fe608060405234801561000f575f80fd5b506004361061011c575f3560e01c806369bc5ed1116100a9578063cacca4a01161006e578063cacca4a014610269578063d547741f1461027c578063edc2e2f51461028f578063f68e9553146102a2578063fa9b715a146102b6575f80fd5b806369bc5ed11461020e5780636f7e770c1461023457806391d148541461023c578063a217fddf1461024f578063b6869c1b14610256575f80fd5b806336568abe116100ef57806336568abe146101ad57806340344232146101c05780634d0434f2146101d357806352a7494d146101f35780635edfe28a146101fb575f80fd5b806301ffc9a714610120578063248a9ca3146101485780632f2ff15d1461017857806331bf41491461018d575b5f80fd5b61013361012e366004611128565b6102c9565b60405190151581526020015b60405180910390f35b61016a610156366004611156565b5f9081526020819052604090206001015490565b60405190815260200161013f565b61018b610186366004611188565b6102ff565b005b6101a061019b3660046111b2565b610329565b60405161013f91906111d2565b61018b6101bb366004611188565b610412565b61018b6101ce366004611188565b61044a565b6101e66101e1366004611156565b61057a565b60405161013f9190611258565b60025461016a565b61018b610209366004611156565b61077e565b61022161021c366004611156565b610825565b60405161013f97969594939291906112e6565b6101a0610a22565b61013361024a366004611188565b610a78565b61016a5f81565b61018b610264366004611387565b610aa0565b61018b610277366004611156565b610d66565b61018b61028a366004611188565b610e7b565b61018b61029d366004611156565b610e9f565b61016a5f8051602061161a83398151915281565b61018b6102c4366004611156565b610f3a565b5f6001600160e01b03198216637965db0b60e01b14806102f957506301ffc9a760e01b6001600160e01b03198316145b92915050565b5f8281526020819052604090206001015461031981610fe6565b6103238383610ff3565b50505050565b60025460609080841061034b575050604080515f8152602081019091526102f9565b5f610356848661143c565b9050818111156103635750805b5f61036e868361144f565b67ffffffffffffffff81111561038657610386611414565b6040519080825280602002602001820160405280156103af578160200160208202803683370190505b509050855b8281101561040857600281815481106103cf576103cf611462565b905f5260205f2001548288836103e5919061144f565b815181106103f5576103f5611462565b60209081029190910101526001016103b4565b5095945050505050565b6001600160a01b038116331461043b5760405163334bd91960e11b815260040160405180910390fd5b6104458282611082565b505050565b5f8281526001602052604090206004810154600160a81b900460ff1661048b576040516314f96af160e21b8152600481018490526024015b60405180910390fd5b6004810154600160a01b900460ff16156104bb576040516328d8671360e11b815260048101849052602401610482565b80546001600160a01b031633146104e4576040516282b42960e81b815260040160405180910390fd5b6001600160a01b0382161580610506575080546001600160a01b038381169116145b156105245760405163147cf14960e31b815260040160405180910390fd5b6004810180546001600160a01b0319166001600160a01b0384811691821790925582546040519192169085907fad86e5395107a44c23ae10207c8807efe6cd1bfc2980d8c2bcab8f3a24daccd1905f90a4505050565b6105cb6040518060e001604052805f6001600160a01b031681526020015f815260200160608152602001606081526020015f6001600160a01b031681526020015f151581526020015f151581525090565b5f828152600160208181526040808420815160e08101835281546001600160a01b0316815293810154928401929092526002820180549184019161060e90611476565b80601f016020809104026020016040519081016040528092919081815260200182805461063a90611476565b80156106855780601f1061065c57610100808354040283529160200191610685565b820191905f5260205f20905b81548152906001019060200180831161066857829003601f168201915b5050505050815260200160038201805461069e90611476565b80601f01602080910402602001604051908101604052809291908181526020018280546106ca90611476565b80156107155780601f106106ec57610100808354040283529160200191610715565b820191905f5260205f20905b8154815290600101906020018083116106f857829003601f168201915b5050509183525050600491909101546001600160a01b038116602083015260ff600160a01b8204811615156040840152600160a81b90910416151560609091015260c08101519091506102f9576040516314f96af160e21b815260048101849052602401610482565b5f8051602061161a83398151915261079581610fe6565b5f8281526001602052604090206004810154600160a81b900460ff166107d1576040516314f96af160e21b815260048101849052602401610482565b6004810154600160a01b900460ff16156104455760048101805460ff60a01b19169055604051339084907f1c6d74693630f709f90b817c0ff13a2c252c9f1d2dda59e24276ea8c6d0ac8f3905f90a3505050565b5f818152600160208181526040808420815160e08101835281546001600160a01b031681529381015492840192909252600282018054859460609485948794859485948594909390929084019161087b90611476565b80601f01602080910402602001604051908101604052809291908181526020018280546108a790611476565b80156108f25780601f106108c9576101008083540402835291602001916108f2565b820191905f5260205f20905b8154815290600101906020018083116108d557829003601f168201915b5050505050815260200160038201805461090b90611476565b80601f016020809104026020016040519081016040528092919081815260200182805461093790611476565b80156109825780601f1061095957610100808354040283529160200191610982565b820191905f5260205f20905b81548152906001019060200180831161096557829003601f168201915b5050509183525050600491909101546001600160a01b038116602083015260ff600160a01b8204811615156040840152600160a81b90910416151560609091015260c08101519091506109eb576040516314f96af160e21b8152600481018a9052602401610482565b8051602082015160408301516060840151608085015160a086015160c090960151949e939d50919b50995097509195509350915050565b60606002805480602002602001604051908101604052809291908181526020018280548015610a6e57602002820191905f5260205f20905b815481526020019060010190808311610a5a575b5050505050905090565b5f918252602082815260408084206001600160a01b0393909316845291905290205460ff1690565b5f8051602061161a833981519152610ab781610fe6565b5f88815260016020526040902060040154600160a81b900460ff1615610af3576040516364ec35ad60e01b815260048101899052602401610482565b6001600160a01b038716610b1a5760405163e6c4247b60e01b815260040160405180910390fd5b855f03610b3a57604051633aed941960e21b815260040160405180910390fd5b5f849003610b5b57604051630ec0325960e21b815260040160405180910390fd5b5f829003610b7c57604051630ec0325960e21b815260040160405180910390fd5b6040518060e00160405280886001600160a01b0316815260200187815260200186868080601f0160208091040260200160405190810160405280939291908181526020018383808284375f92019190915250505090825250604080516020601f8701819004810282018101909252858152918101919086908690819084018382808284375f92018290525093855250505060208083018290526040808401839052600160609094018490528c835283825291829020845181546001600160a01b0319166001600160a01b0390911617815590840151928101929092558201516002820190610c6a90826114f9565b5060608201516003820190610c7f90826114f9565b5060808201516004909101805460a084015160c0909401511515600160a81b0260ff60a81b19941515600160a01b026001600160a81b03199092166001600160a01b0394851617919091179390931692909217909155600280545f8b8152600360205260408082208390556001830184559290527f405787fa12a823e0f2b7631cc41b3ba8828b3321ca811111fa75cd3aa3bb5ace018a9055519088169089907fc07524e44a2b560d374cc4b116a1ea7157d3e93aa66cb80e639539874486c79d90610d54908a908a908a908a908a906115e1565b60405180910390a35050505050505050565b5f8051602061161a833981519152610d7d81610fe6565b5f8281526001602052604090206004810154600160a81b900460ff16610db9576040516314f96af160e21b815260048101849052602401610482565b6004810154600160a01b900460ff1615610de9576040516328d8671360e11b815260048101849052602401610482565b60048101546001600160a01b0316610e1757604051633cb794ef60e11b815260048101849052602401610482565b80546004820180546001600160a01b038082166001600160a01b0319808616821787559092169092556040519190921691908190839087907f46f832fce5ed185c63ebb7f10c809c6ecbe7c0e49554433903d83d6dceef88f7905f90a45050505050565b5f82815260208190526040902060010154610e9581610fe6565b6103238383611082565b5f8181526001602052604090206004810154600160a81b900460ff16610edb576040516314f96af160e21b815260048101839052602401610482565b80546001600160a01b03163314801590610f095750610f075f8051602061161a83398151915233610a78565b155b15610f26576040516282b42960e81b815260040160405180910390fd5b60040180546001600160a01b031916905550565b5f8051602061161a833981519152610f5181610fe6565b5f8281526001602052604090206004810154600160a81b900460ff16610f8d576040516314f96af160e21b815260048101849052602401610482565b6004810154600160a01b900460ff166104455760048101805460ff60a01b1916600160a01b179055604051339084907fd059dbac75aec24ee618a21d2d08bde2967b5adda38c74ea8bd746f49fe02e36905f90a3505050565b610ff081336110eb565b50565b5f610ffe8383610a78565b61107b575f838152602081815260408083206001600160a01b03861684529091529020805460ff191660011790556110333390565b6001600160a01b0316826001600160a01b0316847f2f8788117e7eff1d82e926ec794901d17c78024a50270940304540a733656f0d60405160405180910390a45060016102f9565b505f6102f9565b5f61108d8383610a78565b1561107b575f838152602081815260408083206001600160a01b0386168085529252808320805460ff1916905551339286917ff6391f5c32d9c69d2a47ea670b442974b53935d1edc7fd64eb21e047a839171b9190a45060016102f9565b6110f58282610a78565b6111245760405163e2517d3f60e01b81526001600160a01b038216600482015260248101839052604401610482565b5050565b5f60208284031215611138575f80fd5b81356001600160e01b03198116811461114f575f80fd5b9392505050565b5f60208284031215611166575f80fd5b5035919050565b80356001600160a01b0381168114611183575f80fd5b919050565b5f8060408385031215611199575f80fd5b823591506111a96020840161116d565b90509250929050565b5f80604083850312156111c3575f80fd5b50508035926020909101359150565b602080825282518282018190525f9190848201906040850190845b81811015611209578351835292840192918401916001016111ed565b50909695505050505050565b5f81518084525f5b818110156112395760208185018101518683018201520161121d565b505f602082860101526020601f19601f83011685010191505092915050565b602081525f60018060a01b0380845116602084015260208401516040840152604084015160e06060850152611291610100850182611215565b90506060850151601f198583030160808601526112ae8282611215565b9150508160808601511660a085015260a0850151151560c085015260c085015191506112de60e085018315159052565b949350505050565b5f60018060a01b03808a16835288602084015260e0604084015261130d60e0840189611215565b838103606085015261131f8189611215565b969091166080840152505091151560a0830152151560c090910152949350505050565b5f8083601f840112611352575f80fd5b50813567ffffffffffffffff811115611369575f80fd5b602083019150836020828501011115611380575f80fd5b9250929050565b5f805f805f805f60a0888a03121561139d575f80fd5b873596506113ad6020890161116d565b955060408801359450606088013567ffffffffffffffff808211156113d0575f80fd5b6113dc8b838c01611342565b909650945060808a01359150808211156113f4575f80fd5b506114018a828b01611342565b989b979a50959850939692959293505050565b634e487b7160e01b5f52604160045260245ffd5b634e487b7160e01b5f52601160045260245ffd5b808201808211156102f9576102f9611428565b818103818111156102f9576102f9611428565b634e487b7160e01b5f52603260045260245ffd5b600181811c9082168061148a57607f821691505b6020821081036114a857634e487b7160e01b5f52602260045260245ffd5b50919050565b601f82111561044557805f5260205f20601f840160051c810160208510156114d35750805b601f840160051c820191505b818110156114f2575f81556001016114df565b5050505050565b815167ffffffffffffffff81111561151357611513611414565b611527816115218454611476565b846114ae565b602080601f83116001811461155a575f84156115435750858301515b5f19600386901b1c1916600185901b1785556115b1565b5f85815260208120601f198616915b8281101561158857888601518255948401946001909101908401611569565b50858210156115a557878501515f19600388901b60f8161c191681555b505060018460011b0185555b505050505050565b81835281816020850137505f828201602090810191909152601f909101601f19169091010190565b858152606060208201525f6115fa6060830186886115b9565b828103604084015261160d8185876115b9565b9897505050505050505056feedcc084d3dcd65a1f7f23c65c46722faca6953d28e43150a467cf43e5c309238a2646970667358221220d3c14181248c8b5c1836bf03001141dc2c5fc582766b0f65cea158123d7939e664736f6c63430008180033","linkReferences":{}},"methodIdentifiers":{"DEFAULT_ADMIN_ROLE()":"a217fddf","REGISTRAR_ROLE()":"f68e9553","approveTransfer(uint256)":"cacca4a0","clearPendingTransfer(uint256)":"edc2e2f5","freezeParcel(uint256)":"fa9b715a","getAllParcelIds()":"6f7e770c","getPaginatedParcelIds(uint256,uint256)":"31bf4149","getParcel(uint256)":"4d0434f2","getParcelCount()":"52a7494d","getRoleAdmin(bytes32)":"248a9ca3","grantRole(bytes32,address)":"2f2ff15d","hasRole(bytes32,address)":"91d14854","registerParcel(uint256,address,uint256,string,string)":"b6869c1b","renounceRole(bytes32,address)":"36568abe","requestTransfer(uint256,address)":"40344232","revokeRole(bytes32,address)":"d547741f","supportsInterface(bytes4)":"01ffc9a7","unfreezeParcel(uint256)":"5edfe28a","verifyParcel(uint256)":"69bc5ed1"},"id":27}